{
  "contractName": "PeerToPeerExchange",
  "abi": [
    {
      "anonymous": false,
      "inputs": [
        {
          "indexed": true,
          "internalType": "address",
          "name": "seller",
          "type": "address"
        },
        {
          "indexed": true,
          "internalType": "address",
          "name": "buyer",
          "type": "address"
        },
        {
          "indexed": false,
          "internalType": "uint256",
          "name": "amount",
          "type": "uint256"
        },
        {
          "indexed": false,
          "internalType": "address",
          "name": "tokenAddress",
          "type": "address"
        }
      ],
      "name": "Exchange",
      "type": "event"
    },
    {
      "inputs": [
        {
          "internalType": "address",
          "name": "buyer",
          "type": "address"
        },
        {
          "internalType": "uint256",
          "name": "amount",
          "type": "uint256"
        },
        {
          "internalType": "address",
          "name": "tokenAddress",
          "type": "address"
        }
      ],
      "name": "exchange",
      "outputs": [],
      "stateMutability": "nonpayable",
      "type": "function"
    }
  ],
  "bytecode": "0x608060405234801561001057600080fd5b5061062f806100206000396000f3fe608060405234801561001057600080fd5b506004361061002b5760003560e01c8063a250bc6b14610030575b600080fd5b61004a60048036038101906100459190610342565b61004c565b005b6000821161008f576040517f08c379a0000000000000000000000000000000000000000000000000000000008152600401610086906103f2565b60405180910390fd5b600073ffffffffffffffffffffffffffffffffffffffff168373ffffffffffffffffffffffffffffffffffffffff16036100fe576040517f08c379a00000000000000000000000000000000000000000000000000000000081526004016100f59061045e565b60405180910390fd5b60008173ffffffffffffffffffffffffffffffffffffffff1633858560405160240161012c9392919061049c565b6040516020818303038152906040527f23b872dd000000000000000000000000000000000000000000000000000000007bffffffffffffffffffffffffffffffffffffffffffffffffffffffff19166020820180517bffffffffffffffffffffffffffffffffffffffffffffffffffffffff83818316178352505050506040516101b6919061054d565b6000604051808303816000865af19150503d80600081146101f3576040519150601f19603f3d011682016040523d82523d6000602084013e6101f8565b606091505b505090508061023c576040517f08c379a0000000000000000000000000000000000000000000000000000000008152600401610233906105b0565b60405180910390fd5b8373ffffffffffffffffffffffffffffffffffffffff163373ffffffffffffffffffffffffffffffffffffffff167f8f76119a2ce416e7cb071f59d5029dac674dfc46b4c245219902c862465d2037858560405161029b9291906105d0565b60405180910390a350505050565b600080fd5b600073ffffffffffffffffffffffffffffffffffffffff82169050919050565b60006102d9826102ae565b9050919050565b6102e9816102ce565b81146102f457600080fd5b50565b600081359050610306816102e0565b92915050565b6000819050919050565b61031f8161030c565b811461032a57600080fd5b50565b60008135905061033c81610316565b92915050565b60008060006060848603121561035b5761035a6102a9565b5b6000610369868287016102f7565b935050602061037a8682870161032d565b925050604061038b868287016102f7565b9150509250925092565b600082825260208201905092915050565b7f416d6f756e74206d7573742062652067726561746572207468616e207a65726f600082015250565b60006103dc602083610395565b91506103e7826103a6565b602082019050919050565b6000602082019050818103600083015261040b816103cf565b9050919050565b7f42757965722061646472657373206d7573742062652076616c69640000000000600082015250565b6000610448601b83610395565b915061045382610412565b602082019050919050565b600060208201905081810360008301526104778161043b565b9050919050565b610487816102ce565b82525050565b6104968161030c565b82525050565b60006060820190506104b1600083018661047e565b6104be602083018561047e565b6104cb604083018461048d565b949350505050565b600081519050919050565b600081905092915050565b60005b838110156105075780820151818401526020810190506104ec565b83811115610516576000848401525b50505050565b6000610527826104d3565b61053181856104de565b93506105418185602086016104e9565b80840191505092915050565b6000610559828461051c565b915081905092915050565b7f546f6b656e207472616e73666572206661696c65640000000000000000000000600082015250565b600061059a601583610395565b91506105a582610564565b602082019050919050565b600060208201905081810360008301526105c98161058d565b9050919050565b60006040820190506105e5600083018561048d565b6105f2602083018461047e565b939250505056fea26469706673582212204ba6b270db1e47afd55bd3ef980a0e8c2b1660a0bb2b0c2cf374f4e7b73cc18a64736f6c634300080d0033",
  "immutableReferences": {},
  "source": "// SPDX-License-Identifier: MIT\r\npragma solidity ^0.8.0;\r\n\r\ncontract PeerToPeerExchange {\r\n    event Exchange(address indexed seller, address indexed buyer, uint256 amount, address tokenAddress);\r\n\r\n    function exchange(address buyer, uint256 amount, address tokenAddress) public {\r\n        require(amount > 0, \"Amount must be greater than zero\");\r\n        require(buyer != address(0), \"Buyer address must be valid\");\r\n\r\n        // Transfer tokens from seller to buyer\r\n        (bool success, ) = tokenAddress.call(abi.encodeWithSignature(\"transferFrom(address,address,uint256)\", msg.sender, buyer, amount));\r\n        require(success, \"Token transfer failed\");\r\n\r\n        emit Exchange(msg.sender, buyer, amount, tokenAddress);\r\n    }\r\n}\r\n",
  "sourcePath": "C:\\Users\\ASUS\\MYTokenExchange\\contracts\\PeerToPeerExchange.sol",
  "compiler": {
    "name": "solc",
    "version": "0.8.13+commit.abaa5c0e.Emscripten.clang"
  },
  "schemaVersion": "3.4.16",
  "updatedAt": "2024-08-25T05:54:06.627Z",
  "networkType": "ethereum",
  "devdoc": {
    "kind": "dev",
    "methods": {},
    "version": 1
  },
  "userdoc": {
    "kind": "user",
    "methods": {},
    "version": 1
  }
}